{
    "contractName": "SpaceLand",
    "abi": [
        {
            "constant": true,
            "inputs": [
                {
                    "name": "interfaceId",
                    "type": "bytes4"
                }
            ],
            "name": "supportsInterface",
            "outputs": [
                {
                    "name": "",
                    "type": "bool"
                }
            ],
            "payable": false,
            "stateMutability": "view",
            "type": "function"
        },
        {
            "constant": true,
            "inputs": [
                {
                    "name": "tokenId",
                    "type": "uint256"
                }
            ],
            "name": "getApproved",
            "outputs": [
                {
                    "name": "",
                    "type": "address"
                }
            ],
            "payable": false,
            "stateMutability": "view",
            "type": "function"
        },
        {
            "constant": false,
            "inputs": [
                {
                    "name": "to",
                    "type": "address"
                },
                {
                    "name": "tokenId",
                    "type": "uint256"
                }
            ],
            "name": "approve",
            "outputs": [],
            "payable": false,
            "stateMutability": "nonpayable",
            "type": "function"
        },
        {
            "constant": true,
            "inputs": [],
            "name": "totalSupply",
            "outputs": [
                {
                    "name": "",
                    "type": "uint256"
                }
            ],
            "payable": false,
            "stateMutability": "view",
            "type": "function"
        },
        {
            "constant": false,
            "inputs": [
                {
                    "name": "from",
                    "type": "address"
                },
                {
                    "name": "to",
                    "type": "address"
                },
                {
                    "name": "tokenId",
                    "type": "uint256"
                }
            ],
            "name": "transferFrom",
            "outputs": [],
            "payable": false,
            "stateMutability": "nonpayable",
            "type": "function"
        },
        {
            "constant": true,
            "inputs": [
                {
                    "name": "owner",
                    "type": "address"
                },
                {
                    "name": "index",
                    "type": "uint256"
                }
            ],
            "name": "tokenOfOwnerByIndex",
            "outputs": [
                {
                    "name": "",
                    "type": "uint256"
                }
            ],
            "payable": false,
            "stateMutability": "view",
            "type": "function"
        },
        {
            "constant": false,
            "inputs": [
                {
                    "name": "from",
                    "type": "address"
                },
                {
                    "name": "to",
                    "type": "address"
                },
                {
                    "name": "tokenId",
                    "type": "uint256"
                }
            ],
            "name": "safeTransferFrom",
            "outputs": [],
            "payable": false,
            "stateMutability": "nonpayable",
            "type": "function"
        },
        {
            "constant": true,
            "inputs": [
                {
                    "name": "index",
                    "type": "uint256"
                }
            ],
            "name": "tokenByIndex",
            "outputs": [
                {
                    "name": "",
                    "type": "uint256"
                }
            ],
            "payable": false,
            "stateMutability": "view",
            "type": "function"
        },
        {
            "constant": true,
            "inputs": [
                {
                    "name": "tokenId",
                    "type": "uint256"
                }
            ],
            "name": "ownerOf",
            "outputs": [
                {
                    "name": "",
                    "type": "address"
                }
            ],
            "payable": false,
            "stateMutability": "view",
            "type": "function"
        },
        {
            "constant": true,
            "inputs": [
                {
                    "name": "owner",
                    "type": "address"
                }
            ],
            "name": "balanceOf",
            "outputs": [
                {
                    "name": "",
                    "type": "uint256"
                }
            ],
            "payable": false,
            "stateMutability": "view",
            "type": "function"
        },
        {
            "constant": true,
            "inputs": [],
            "name": "owner",
            "outputs": [
                {
                    "name": "",
                    "type": "address"
                }
            ],
            "payable": false,
            "stateMutability": "view",
            "type": "function"
        },
        {
            "constant": false,
            "inputs": [
                {
                    "name": "to",
                    "type": "address"
                },
                {
                    "name": "approved",
                    "type": "bool"
                }
            ],
            "name": "setApprovalForAll",
            "outputs": [],
            "payable": false,
            "stateMutability": "nonpayable",
            "type": "function"
        },
        {
            "constant": false,
            "inputs": [
                {
                    "name": "from",
                    "type": "address"
                },
                {
                    "name": "to",
                    "type": "address"
                },
                {
                    "name": "tokenId",
                    "type": "uint256"
                },
                {
                    "name": "_data",
                    "type": "bytes"
                }
            ],
            "name": "safeTransferFrom",
            "outputs": [],
            "payable": false,
            "stateMutability": "nonpayable",
            "type": "function"
        },
        {
            "constant": true,
            "inputs": [
                {
                    "name": "owner",
                    "type": "address"
                },
                {
                    "name": "operator",
                    "type": "address"
                }
            ],
            "name": "isApprovedForAll",
            "outputs": [
                {
                    "name": "",
                    "type": "bool"
                }
            ],
            "payable": false,
            "stateMutability": "view",
            "type": "function"
        },
        {
            "inputs": [
                {
                    "name": "rows",
                    "type": "uint256"
                },
                {
                    "name": "columns",
                    "type": "uint256"
                },
                {
                    "name": "landHeight",
                    "type": "uint256"
                },
                {
                    "name": "landWidth",
                    "type": "uint256"
                },
                {
                    "name": "landPrice",
                    "type": "uint256"
                }
            ],
            "payable": false,
            "stateMutability": "nonpayable",
            "type": "constructor"
        },
        {
            "anonymous": false,
            "inputs": [
                {
                    "indexed": true,
                    "name": "from",
                    "type": "address"
                },
                {
                    "indexed": true,
                    "name": "to",
                    "type": "address"
                },
                {
                    "indexed": true,
                    "name": "tokenId",
                    "type": "uint256"
                }
            ],
            "name": "Transfer",
            "type": "event"
        },
        {
            "anonymous": false,
            "inputs": [
                {
                    "indexed": true,
                    "name": "owner",
                    "type": "address"
                },
                {
                    "indexed": true,
                    "name": "approved",
                    "type": "address"
                },
                {
                    "indexed": true,
                    "name": "tokenId",
                    "type": "uint256"
                }
            ],
            "name": "Approval",
            "type": "event"
        },
        {
            "anonymous": false,
            "inputs": [
                {
                    "indexed": true,
                    "name": "owner",
                    "type": "address"
                },
                {
                    "indexed": true,
                    "name": "operator",
                    "type": "address"
                },
                {
                    "indexed": false,
                    "name": "approved",
                    "type": "bool"
                }
            ],
            "name": "ApprovalForAll",
            "type": "event"
        },
        {
            "constant": false,
            "inputs": [
                {
                    "name": "landId",
                    "type": "uint256"
                }
            ],
            "name": "buy",
            "outputs": [],
            "payable": true,
            "stateMutability": "payable",
            "type": "function"
        },
        {
            "constant": false,
            "inputs": [
                {
                    "name": "landIds",
                    "type": "uint256[]"
                }
            ],
            "name": "buyMany",
            "outputs": [],
            "payable": true,
            "stateMutability": "payable",
            "type": "function"
        },
        {
            "constant": false,
            "inputs": [
                {
                    "name": "landId",
                    "type": "uint256"
                },
                {
                    "name": "name",
                    "type": "string"
                },
                {
                    "name": "desc",
                    "type": "string"
                }
            ],
            "name": "setDetails",
            "outputs": [
                {
                    "name": "",
                    "type": "uint256"
                }
            ],
            "payable": false,
            "stateMutability": "nonpayable",
            "type": "function"
        },
        {
            "constant": true,
            "inputs": [
                {
                    "name": "landId",
                    "type": "uint256"
                }
            ],
            "name": "getDetails",
            "outputs": [
                {
                    "name": "",
                    "type": "uint256"
                },
                {
                    "name": "",
                    "type": "string"
                },
                {
                    "name": "",
                    "type": "string"
                }
            ],
            "payable": false,
            "stateMutability": "view",
            "type": "function"
        },
        {
            "constant": true,
            "inputs": [],
            "name": "allLands",
            "outputs": [
                {
                    "name": "",
                    "type": "uint256[]"
                }
            ],
            "payable": false,
            "stateMutability": "view",
            "type": "function"
        },
        {
            "constant": true,
            "inputs": [
                {
                    "name": "buyer",
                    "type": "address"
                }
            ],
            "name": "landsOf",
            "outputs": [
                {
                    "name": "",
                    "type": "uint256[]"
                }
            ],
            "payable": false,
            "stateMutability": "view",
            "type": "function"
        },
        {
            "constant": true,
            "inputs": [],
            "name": "ownedLands",
            "outputs": [
                {
                    "name": "",
                    "type": "uint256[]"
                }
            ],
            "payable": false,
            "stateMutability": "view",
            "type": "function"
        },
        {
            "constant": true,
            "inputs": [],
            "name": "maxTotalSupply",
            "outputs": [
                {
                    "name": "",
                    "type": "uint256"
                }
            ],
            "payable": false,
            "stateMutability": "view",
            "type": "function"
        }
    ],
    "bytecode": "0x60806040523480156200001157600080fd5b5060405160a0806200278d83398101806040528101908080519060200190929190805190602001909291908051906020019092919080519060200190929190805190602001909291905050506200009a6301ffc9a77c010000000000000000000000000000000000000000000000000000000002620001bf640100000000026401000000009004565b620000d76380ac58cd7c010000000000000000000000000000000000000000000000000000000002620001bf640100000000026401000000009004565b6200011463780e9d637c010000000000000000000000000000000000000000000000000000000002620001bf640100000000026401000000009004565b33600960006101000a81548173ffffffffffffffffffffffffffffffffffffffff021916908373ffffffffffffffffffffffffffffffffffffffff16021790555060a06040519081016040528086815260200185815260200184815260200183815260200182815250600a600082015181600001556020820151816001015560408201518160020155606082015181600301556080820151816004015590505050505050506200027d565b63ffffffff7c010000000000000000000000000000000000000000000000000000000002817bffffffffffffffffffffffffffffffffffffffffffffffffffffffff1916141515156200021157600080fd5b6001600080837bffffffffffffffffffffffffffffffffffffffffffffffffffffffff19167bffffffffffffffffffffffffffffffffffffffffffffffffffffffff1916815260200190815260200160002060006101000a81548160ff02191690831515021790555050565b612500806200028d6000396000f300608060405260043610610128576000357c0100000000000000000000000000000000000000000000000000000000900463ffffffff16806301ffc9a71461012d578063081812fc14610191578063095ea7b3146101fe5780630b48b3d01461024b57806318160ddd146102b757806323b872dd146102e25780632ab4d0521461034f5780632f745c591461037a57806342842e0e146103db5780634f6ccce7146104485780636352211e1461048957806370a08231146104f6578063779cc9d01461054d5780637d6ff281146105a65780638da5cb5b146106735780639805d7d2146106ca578063a22cb46514610762578063b88d4fde146107b1578063b93a89f714610864578063bfa9b5541461097d578063d96a094a146109e9578063e985e9c514610a09575b600080fd5b34801561013957600080fd5b5061017760048036038101908080357bffffffffffffffffffffffffffffffffffffffffffffffffffffffff19169060200190929190505050610a84565b604051808215151515815260200191505060405180910390f35b34801561019d57600080fd5b506101bc60048036038101908080359060200190929190505050610aeb565b604051808273ffffffffffffffffffffffffffffffffffffffff1673ffffffffffffffffffffffffffffffffffffffff16815260200191505060405180910390f35b34801561020a57600080fd5b50610249600480360381019080803573ffffffffffffffffffffffffffffffffffffffff16906020019092919080359060200190929190505050610b3c565b005b34801561025757600080fd5b50610260610c81565b6040518080602001828103825283818151815260200191508051906020019060200280838360005b838110156102a3578082015181840152602081019050610288565b505050509050019250505060405180910390f35b3480156102c357600080fd5b506102cc610c91565b6040518082815260200191505060405180910390f35b3480156102ee57600080fd5b5061034d600480360381019080803573ffffffffffffffffffffffffffffffffffffffff169060200190929190803573ffffffffffffffffffffffffffffffffffffffff16906020019092919080359060200190929190505050610c9e565b005b34801561035b57600080fd5b50610364610d6d565b6040518082815260200191505060405180910390f35b34801561038657600080fd5b506103c5600480360381019080803573ffffffffffffffffffffffffffffffffffffffff16906020019092919080359060200190929190505050610d81565b6040518082815260200191505060405180910390f35b3480156103e757600080fd5b50610446600480360381019080803573ffffffffffffffffffffffffffffffffffffffff169060200190929190803573ffffffffffffffffffffffffffffffffffffffff16906020019092919080359060200190929190505050610df8565b005b34801561045457600080fd5b5061047360048036038101908080359060200190929190505050610e19565b6040518082815260200191505060405180910390f35b34801561049557600080fd5b506104b460048036038101908080359060200190929190505050610e51565b604051808273ffffffffffffffffffffffffffffffffffffffff1673ffffffffffffffffffffffffffffffffffffffff16815260200191505060405180910390f35b34801561050257600080fd5b50610537600480360381019080803573ffffffffffffffffffffffffffffffffffffffff169060200190929190505050610ecf565b6040518082815260200191505060405180910390f35b6105a460048036038101908080359060200190820180359060200190808060200260200160405190810160405280939291908181526020018383602002808284378201915050505050509192919290505050610f53565b005b3480156105b257600080fd5b5061065d60048036038101908080359060200190929190803590602001908201803590602001908080601f0160208091040260200160405190810160405280939291908181526020018383808284378201915050505050509192919290803590602001908201803590602001908080601f0160208091040260200160405190810160405280939291908181526020018383808284378201915050505050509192919290505050611186565b6040518082815260200191505060405180910390f35b34801561067f57600080fd5b506106886112ad565b604051808273ffffffffffffffffffffffffffffffffffffffff1673ffffffffffffffffffffffffffffffffffffffff16815260200191505060405180910390f35b3480156106d657600080fd5b5061070b600480360381019080803573ffffffffffffffffffffffffffffffffffffffff1690602001909291905050506112d3565b6040518080602001828103825283818151815260200191508051906020019060200280838360005b8381101561074e578082015181840152602081019050610733565b505050509050019250505060405180910390f35b34801561076e57600080fd5b506107af600480360381019080803573ffffffffffffffffffffffffffffffffffffffff169060200190929190803515159060200190929190505050611321565b005b3480156107bd57600080fd5b50610862600480360381019080803573ffffffffffffffffffffffffffffffffffffffff169060200190929190803573ffffffffffffffffffffffffffffffffffffffff16906020019092919080359060200190929190803590602001908201803590602001908080601f016020809104026020016040519081016040528093929190818152602001838380828437820191505050505050919291929050505061145d565b005b34801561087057600080fd5b5061088f60048036038101908080359060200190929190505050611485565b604051808481526020018060200180602001838103835285818151815260200191508051906020019080838360005b838110156108d95780820151818401526020810190506108be565b50505050905090810190601f1680156109065780820380516001836020036101000a031916815260200191505b50838103825284818151815260200191508051906020019080838360005b8381101561093f578082015181840152602081019050610924565b50505050905090810190601f16801561096c5780820380516001836020036101000a031916815260200191505b509550505050505060405180910390f35b34801561098957600080fd5b506109926115f0565b6040518080602001828103825283818151815260200191508051906020019060200280838360005b838110156109d55780820151818401526020810190506109ba565b505050509050019250505060405180910390f35b610a07600480360381019080803590602001909291905050506115ff565b005b348015610a1557600080fd5b50610a6a600480360381019080803573ffffffffffffffffffffffffffffffffffffffff169060200190929190803573ffffffffffffffffffffffffffffffffffffffff16906020019092919050505061176c565b604051808215151515815260200191505060405180910390f35b6000806000837bffffffffffffffffffffffffffffffffffffffffffffffffffffffff19167bffffffffffffffffffffffffffffffffffffffffffffffffffffffff1916815260200190815260200160002060009054906101000a900460ff169050919050565b6000610af682611800565b1515610b0157600080fd5b6002600083815260200190815260200160002060009054906101000a900473ffffffffffffffffffffffffffffffffffffffff169050919050565b6000610b4782610e51565b90508073ffffffffffffffffffffffffffffffffffffffff168373ffffffffffffffffffffffffffffffffffffffff1614151515610b8457600080fd5b8073ffffffffffffffffffffffffffffffffffffffff163373ffffffffffffffffffffffffffffffffffffffff161480610bc45750610bc3813361176c565b5b1515610bcf57600080fd5b826002600084815260200190815260200160002060006101000a81548173ffffffffffffffffffffffffffffffffffffffff021916908373ffffffffffffffffffffffffffffffffffffffff160217905550818373ffffffffffffffffffffffffffffffffffffffff168273ffffffffffffffffffffffffffffffffffffffff167f8c5be1e5ebec7d5bd14f71427d1e84f3dd0314c0f7b2291e5b200ac8c7c3b92560405160405180910390a4505050565b6060610c8c33611872565b905090565b6000600780549050905090565b610ca83382611945565b1515610cb357600080fd5b600073ffffffffffffffffffffffffffffffffffffffff168273ffffffffffffffffffffffffffffffffffffffff1614151515610cef57600080fd5b610cf983826119da565b610d038382611add565b610d0d8282611c99565b808273ffffffffffffffffffffffffffffffffffffffff168473ffffffffffffffffffffffffffffffffffffffff167fddf252ad1be2c89b69c2b068fc378daa952ba7f163c4a11628f55a4df523b3ef60405160405180910390a4505050565b6000600a60010154600a6000015402905090565b6000610d8c83610ecf565b82101515610d9957600080fd5b600560008473ffffffffffffffffffffffffffffffffffffffff1673ffffffffffffffffffffffffffffffffffffffff16815260200190815260200160002082815481101515610de557fe5b9060005260206000200154905092915050565b610e14838383602060405190810160405280600081525061145d565b505050565b6000610e23610c91565b82101515610e3057600080fd5b600782815481101515610e3f57fe5b90600052602060002001549050919050565b6000806001600084815260200190815260200160002060009054906101000a900473ffffffffffffffffffffffffffffffffffffffff169050600073ffffffffffffffffffffffffffffffffffffffff168173ffffffffffffffffffffffffffffffffffffffff1614151515610ec657600080fd5b80915050919050565b60008073ffffffffffffffffffffffffffffffffffffffff168273ffffffffffffffffffffffffffffffffffffffff1614151515610f0c57600080fd5b600360008373ffffffffffffffffffffffffffffffffffffffff1673ffffffffffffffffffffffffffffffffffffffff168152602001908152602001600020549050919050565b60008151610f6f81600a60040154611d7090919063ffffffff16565b3414151561100b576040517f08c379a00000000000000000000000000000000000000000000000000000000081526004018080602001828103825260308152602001807f5b6d73672e76616c7565206973206e6f7420657175616c20746f20657870656381526020017f746564206c616e64732070726963655d0000000000000000000000000000000081525060400191505060405180910390fd5b600a835111151515611085576040517f08c379a00000000000000000000000000000000000000000000000000000000081526004018080602001828103825260208152602001807f5b6c616e64496473206c656e6774682067726561746572207468616e2031305d81525060200191505060405180910390fd5b600091505b825182101561118157600a60010154600a600001540283838151811015156110ae57fe5b90602001906020020151101515611153576040517f08c379a00000000000000000000000000000000000000000000000000000000081526004018080602001828103825260288152602001807f5b6c616e6449642067726561746572207468616e206d6178206176616961626c81526020017f6520696e6465785d00000000000000000000000000000000000000000000000081525060400191505060405180910390fd5b61117433848481518110151561116557fe5b90602001906020020151611dae565b818060010192505061108a565b505050565b6000803373ffffffffffffffffffffffffffffffffffffffff166111a986610e51565b73ffffffffffffffffffffffffffffffffffffffff1614151561125a576040517f08c379a00000000000000000000000000000000000000000000000000000000081526004018080602001828103825260278152602001807f5b6c616e644964206973206e6f74206f776e6564206279206d6573736167652081526020017f73656e6465725d0000000000000000000000000000000000000000000000000081525060400191505060405180910390fd5b600f6000868152602001908152602001600020905083816000019080519060200190611287929190612403565b50828160010190805190602001906112a0929190612403565b5060019150509392505050565b600960009054906101000a900473ffffffffffffffffffffffffffffffffffffffff1681565b6060600073ffffffffffffffffffffffffffffffffffffffff168273ffffffffffffffffffffffffffffffffffffffff161415151561131157600080fd5b61131a82611872565b9050919050565b3373ffffffffffffffffffffffffffffffffffffffff168273ffffffffffffffffffffffffffffffffffffffff161415151561135c57600080fd5b80600460003373ffffffffffffffffffffffffffffffffffffffff1673ffffffffffffffffffffffffffffffffffffffff16815260200190815260200160002060008473ffffffffffffffffffffffffffffffffffffffff1673ffffffffffffffffffffffffffffffffffffffff16815260200190815260200160002060006101000a81548160ff0219169083151502179055508173ffffffffffffffffffffffffffffffffffffffff163373ffffffffffffffffffffffffffffffffffffffff167f17307eab39ab6107e8899845ad3d59bd9653f200f220920489ca2b5937696c3183604051808215151515815260200191505060405180910390a35050565b611468848484610c9e565b61147484848484611e05565b151561147f57600080fd5b50505050565b60006060806000600f60008681526020019081526020016000209050848160000182600101818054600181600116156101000203166002900480601f01602080910402602001604051908101604052809291908181526020018280546001816001161561010002031660029004801561153f5780601f106115145761010080835404028352916020019161153f565b820191906000526020600020905b81548152906001019060200180831161152257829003601f168201915b50505050509150808054600181600116156101000203166002900480601f0160208091040260200160405190810160405280929190818152602001828054600181600116156101000203166002900480156115db5780601f106115b0576101008083540402835291602001916115db565b820191906000526020600020905b8154815290600101906020018083116115be57829003601f168201915b50505050509050935093509350509193909250565b60606115fa612027565b905090565b600161161981600a60040154611d7090919063ffffffff16565b341415156116b5576040517f08c379a00000000000000000000000000000000000000000000000000000000081526004018080602001828103825260308152602001807f5b6d73672e76616c7565206973206e6f7420657175616c20746f20657870656381526020017f746564206c616e64732070726963655d0000000000000000000000000000000081525060400191505060405180910390fd5b600a60010154600a60000154028210151561175e576040517f08c379a00000000000000000000000000000000000000000000000000000000081526004018080602001828103825260288152602001807f5b6c616e6449642067726561746572207468616e206d6178206176616961626c81526020017f6520696e6465785d00000000000000000000000000000000000000000000000081525060400191505060405180910390fd5b6117683383611dae565b5050565b6000600460008473ffffffffffffffffffffffffffffffffffffffff1673ffffffffffffffffffffffffffffffffffffffff16815260200190815260200160002060008373ffffffffffffffffffffffffffffffffffffffff1673ffffffffffffffffffffffffffffffffffffffff16815260200190815260200160002060009054906101000a900460ff16905092915050565b6000806001600084815260200190815260200160002060009054906101000a900473ffffffffffffffffffffffffffffffffffffffff169050600073ffffffffffffffffffffffffffffffffffffffff168173ffffffffffffffffffffffffffffffffffffffff161415915050919050565b6060600073ffffffffffffffffffffffffffffffffffffffff168273ffffffffffffffffffffffffffffffffffffffff16141515156118b057600080fd5b600560008373ffffffffffffffffffffffffffffffffffffffff1673ffffffffffffffffffffffffffffffffffffffff16815260200190815260200160002080548060200260200160405190810160405280929190818152602001828054801561193957602002820191906000526020600020905b815481526020019060010190808311611925575b50505050509050919050565b60008061195183610e51565b90508073ffffffffffffffffffffffffffffffffffffffff168473ffffffffffffffffffffffffffffffffffffffff1614806119c057508373ffffffffffffffffffffffffffffffffffffffff166119a884610aeb565b73ffffffffffffffffffffffffffffffffffffffff16145b806119d157506119d0818561176c565b5b91505092915050565b8173ffffffffffffffffffffffffffffffffffffffff166119fa82610e51565b73ffffffffffffffffffffffffffffffffffffffff16141515611a1c57600080fd5b600073ffffffffffffffffffffffffffffffffffffffff166002600083815260200190815260200160002060009054906101000a900473ffffffffffffffffffffffffffffffffffffffff1673ffffffffffffffffffffffffffffffffffffffff16141515611ad95760006002600083815260200190815260200160002060006101000a81548173ffffffffffffffffffffffffffffffffffffffff021916908373ffffffffffffffffffffffffffffffffffffffff1602179055505b5050565b6000806000611aec858561207f565b60066000858152602001908152602001600020549250611b586001600560008873ffffffffffffffffffffffffffffffffffffffff1673ffffffffffffffffffffffffffffffffffffffff168152602001908152602001600020805490506121ae90919063ffffffff16565b9150600560008673ffffffffffffffffffffffffffffffffffffffff1673ffffffffffffffffffffffffffffffffffffffff16815260200190815260200160002082815481101515611ba657fe5b9060005260206000200154905080600560008773ffffffffffffffffffffffffffffffffffffffff1673ffffffffffffffffffffffffffffffffffffffff16815260200190815260200160002084815481101515611c0057fe5b9060005260206000200181905550600560008673ffffffffffffffffffffffffffffffffffffffff1673ffffffffffffffffffffffffffffffffffffffff168152602001908152602001600020805480919060019003611c609190612483565b50600060066000868152602001908152602001600020819055508260066000838152602001908152602001600020819055505050505050565b6000611ca583836121cf565b600560008473ffffffffffffffffffffffffffffffffffffffff1673ffffffffffffffffffffffffffffffffffffffff168152602001908152602001600020805490509050600560008473ffffffffffffffffffffffffffffffffffffffff1673ffffffffffffffffffffffffffffffffffffffff168152602001908152602001600020829080600181540180825580915050906001820390600052602060002001600090919290919091505550806006600084815260200190815260200160002081905550505050565b6000806000841415611d855760009150611da7565b8284029050828482811515611d9657fe5b04141515611da357600080fd5b8091505b5092915050565b611db88282612329565b600780549050600860008381526020019081526020016000208190555060078190806001815401808255809150509060018203906000526020600020016000909192909190915055505050565b600080611e278573ffffffffffffffffffffffffffffffffffffffff166123cf565b1515611e36576001915061201e565b8473ffffffffffffffffffffffffffffffffffffffff1663150b7a02338887876040518563ffffffff167c0100000000000000000000000000000000000000000000000000000000028152600401808573ffffffffffffffffffffffffffffffffffffffff1673ffffffffffffffffffffffffffffffffffffffff1681526020018473ffffffffffffffffffffffffffffffffffffffff1673ffffffffffffffffffffffffffffffffffffffff16815260200183815260200180602001828103825283818151815260200191508051906020019080838360005b83811015611f2b578082015181840152602081019050611f10565b50505050905090810190601f168015611f585780820380516001836020036101000a031916815260200191505b5095505050505050602060405180830381600087803b158015611f7a57600080fd5b505af1158015611f8e573d6000803e3d6000fd5b505050506040513d6020811015611fa457600080fd5b8101908080519060200190929190505050905063150b7a027c0100000000000000000000000000000000000000000000000000000000027bffffffffffffffffffffffffffffffffffffffffffffffffffffffff1916817bffffffffffffffffffffffffffffffffffffffffffffffffffffffff19161491505b50949350505050565b6060600780548060200260200160405190810160405280929190818152602001828054801561207557602002820191906000526020600020905b815481526020019060010190808311612061575b5050505050905090565b8173ffffffffffffffffffffffffffffffffffffffff1661209f82610e51565b73ffffffffffffffffffffffffffffffffffffffff161415156120c157600080fd5b6121146001600360008573ffffffffffffffffffffffffffffffffffffffff1673ffffffffffffffffffffffffffffffffffffffff168152602001908152602001600020546121ae90919063ffffffff16565b600360008473ffffffffffffffffffffffffffffffffffffffff1673ffffffffffffffffffffffffffffffffffffffff1681526020019081526020016000208190555060006001600083815260200190815260200160002060006101000a81548173ffffffffffffffffffffffffffffffffffffffff021916908373ffffffffffffffffffffffffffffffffffffffff1602179055505050565b6000808383111515156121c057600080fd5b82840390508091505092915050565b600073ffffffffffffffffffffffffffffffffffffffff166001600083815260200190815260200160002060009054906101000a900473ffffffffffffffffffffffffffffffffffffffff1673ffffffffffffffffffffffffffffffffffffffff1614151561223d57600080fd5b816001600083815260200190815260200160002060006101000a81548173ffffffffffffffffffffffffffffffffffffffff021916908373ffffffffffffffffffffffffffffffffffffffff1602179055506122e26001600360008573ffffffffffffffffffffffffffffffffffffffff1673ffffffffffffffffffffffffffffffffffffffff168152602001908152602001600020546123e290919063ffffffff16565b600360008473ffffffffffffffffffffffffffffffffffffffff1673ffffffffffffffffffffffffffffffffffffffff168152602001908152602001600020819055505050565b600073ffffffffffffffffffffffffffffffffffffffff168273ffffffffffffffffffffffffffffffffffffffff161415151561236557600080fd5b61236f8282611c99565b808273ffffffffffffffffffffffffffffffffffffffff16600073ffffffffffffffffffffffffffffffffffffffff167fddf252ad1be2c89b69c2b068fc378daa952ba7f163c4a11628f55a4df523b3ef60405160405180910390a45050565b600080823b905060008111915050919050565b60008082840190508381101515156123f957600080fd5b8091505092915050565b828054600181600116156101000203166002900490600052602060002090601f016020900481019282601f1061244457805160ff1916838001178555612472565b82800160010185558215612472579182015b82811115612471578251825591602001919060010190612456565b5b50905061247f91906124af565b5090565b8154818355818111156124aa578183600052602060002091820191016124a991906124af565b5b505050565b6124d191905b808211156124cd5760008160009055506001016124b5565b5090565b905600a165627a7a723058206d9af132ebf7fa5a21dfe03ab77e69b30ceff96f79e78d7b97852c5913cafe5c0029",
    "source": "pragma solidity ^0.4.24;\n\nimport \"openzeppelin-solidity/contracts/math/SafeMath.sol\";\nimport \"./ERC721Enumerable.sol\";\n\n\ncontract SpaceLand is ERC721Enumerable {\n  using SafeMath for uint256;\n\n  struct LandMeta {\n    uint256 rows;\n    uint256 columns;\n    uint256 height;\n    uint256 width;\n    uint256 price;\n  }\n\n  struct LandDetails {\n    string name;\n    string desc;\n  }\n\n  address public owner;\n\n  LandMeta private _landMeta;\n\n  mapping (uint256 => LandDetails) private _landsDetails;\n\n  constructor(uint256 rows, uint256 columns, uint256 landHeight, uint256 landWidth, uint256 landPrice) public {\n    owner = msg.sender;\n    _landMeta = LandMeta(rows, columns, landHeight, landWidth, landPrice);\n  }\n\n  modifier validLandPrice(uint256 count) {\n    require(msg.value == _landMeta.price.mul(count), \"[msg.value is not equal to expected lands price]\");\n    _;\n  }\n\n  function buy(uint256 landId) public payable validLandPrice(1) {\n    require(landId < (_landMeta.rows * _landMeta.columns), \"[landId greater than max avaiable index]\");\n    _mint(msg.sender, landId);\n  }\n\n  function buyMany(uint256[] landIds) public payable validLandPrice(landIds.length) {\n    require(landIds.length <= 10, \"[landIds length greater than 10]\");\n\n    for (uint256 i = 0; i < landIds.length; i++) {\n      require(landIds[i] < (_landMeta.rows * _landMeta.columns), \"[landId greater than max avaiable index]\");\n      \n      _mint(msg.sender, landIds[i]);\n    }\n  }\n\n  function setDetails(uint256 landId, string name, string desc) public returns (uint256) {\n    require(ownerOf(landId) == msg.sender, \"[landId is not owned by message sender]\");\n    \n    LandDetails storage details = _landsDetails[landId];\n    details.name = name;\n    details.desc = desc;\n\n    return 1;\n  }\n\n  function getDetails(uint256 landId) public view returns (uint256, string, string) {\n    LandDetails storage details = _landsDetails[landId];\n    return (landId, details.name, details.desc);\n  }\n\n  function allLands() public view returns (uint256[]) {\n    return _tokensAll();\n  }\n\n  function landsOf(address buyer) public view returns (uint256[]) {\n    require(buyer != address(0));\n    return _tokensOf(buyer);\n  }\n\n  function ownedLands() public view returns (uint256[]) {\n    return _tokensOf(msg.sender);\n  }\n  \n  function maxTotalSupply() public view returns (uint256) {\n    return _landMeta.rows * _landMeta.columns;\n  }\n}\n",
    "sourcePath": "/Users/jbogacz/Sandbox/spaceyeoman-solidity/contracts/SpaceLand.sol",
    "compiler": {
        "name": "solc",
        "version": "0.4.24+commit.e67f0147.Emscripten.clang"
    },
    "schemaVersion": "2.0.1",
    "updatedAt": "2018-11-07T06:17:13.881Z"
}